:020000040800F2
:10000000FCFF0020C1130000B9130000B913000069
:10001000B9130000B9130000B9130000B9130000B0
:10002000B9130000B9130000B9130000B9130000A0
:10003000B9130000B9130000B9130000B913000090
:10004000B9130000B9130000B9130000B913000080
:10005000B9130000B9130000B9130000B913000070
:10006000B9130000B9130000B9130000B913000060
:10007000B9130000B9130000B9130000B913000050
:10008000B9130000B9130000B9130000B913000040
:10009000B9130000B9130000B9130000B913000030
:1000A000B9130000B9130000B9130000B913000020
:1000B000B9130000B9130000B9130000B913000010
:1000C000B9130000B9130000B9130000B913000000
:1000D000B9130000B9130000B9130000B9130000F0
:1000E000B9130000B9130000B9130000B9130000E0
:1000F000B9130000B9130000B9130000B9130000D0
:10010000B9130000B9130000B9130000B9130000BF
:10011000B9130000B9130000B9130000B9130000AF
:10012000B9130000B9130000B9130000B91300009F
:10013000B9130000B9130000B9130000B91300008F
:10014000B9130000B9130000B9130000B91300007F
:1001500001480068704700BF9400002083B0CDF8CC
:1001600000E000F0FF031A09104603F00F021346E7
:1001700014E0194A02921FE0184A02921CE0184A41
:10018000029219E0174A029216E0174A029213E00F
:10019000164A029210E0164A02920DE00028E8D0BA
:1001A0000128E9D00228EAD00328EBD00428ECD0BB
:1001B0000528EDD00628EED0012212B29A40ADF803
:1001C000042002980A46BDF8041000F0EBFADDF8AE
:1001D00000E003B0704700BF00080140000C014080
:1001E000001001400014014000180140001C0140B3
:1001F0000020014081B0194900EA010108460022AF
:100200000EE0042022E0082020E010201EE0202044
:100210001CE040201AE0802018E040F2001015E0B9
:100220000F498842EDD00F498842ECD00E498842F0
:10023000EBD00E498842EAD00D498842E9D00D49F9
:100240008842E8D00C498842E7D010460B4909683B
:1002500041EA000209490A6001B0704700FCFFFF53
:1002600000080140000C0140001001400014014052
:1002700000180140001C01400020014018100240FD
:1002800081B0CDF800E0012252B23E490A6000F28E
:1002900068010B686FF0006103EA0102144603F085
:1002A0000061C90E0B4602F00041B1F1004F02D1CE
:1002B00035490A6801E035490A6804F47021090CDF
:1002C0000E464FF6FF7104EA01010D4604F4401199
:1002D000B1F5401F0DD16FF0706102EA01010E46C9
:1002E0002A490A686FF070610A4028490A6032465C
:1002F00016E004F48011B1F5801F09D14FF003011D
:10030000B140C94302EA010141F070610A4607E0C9
:10031000610D090105FA01F1C9430A4042F070621A
:100320002BB1610D090105FA01F10A43FFE704F061
:100330000041B1F1004F02D113490A6001E01349B5
:100340000A6040F2000A81464FEA8A0109EB010186
:100350000968B1F1FF3F10D009F134014FEA8A0377
:10036000C91809680A4609EB0301096808461146DD
:10037000FFF7F4FE0AF1010AE6E7DDF800E001B05C
:10038000704700BF000342421C00014004000140CE
:1003900082B0CDF800E0034619460191FFF7D8FE80
:1003A00040F2E83100FB01F201990A601F49097827
:1003B000C1F30311C8B21E4909180878C0B21A1D4A
:1003C0001968C140116019490988C1F3022188B236
:1003D000174909180878C0B203F20802191D096804
:1003E000C140116011490988C1F3C22188B2104986
:1003F00009180878C0B203F20C02191D0968C1403F
:1004000011600A490988C1F3813188B20949091884
:100410000978C8B203F2100203F20C010968B1FBBB
:10042000F0F11160DDF800E002B070470410024006
:10043000581700003211000001480068704700BFE3
:100440000C01224201480068704700BF140121429C
:1004500001480068704700BF1C81214201480068C4
:10046000704700BF2C01224281B0ADF80010014658
:10047000BDF800000B68C3F3C01202B9FAE70A1D09
:10048000106001B07047FFFF01480068704700BF6F
:100490003881224201480068704700BF280122428B
:1004A00001480068704700BF2801224201480068E7
:1004B000704700BF3481224201480068704700BF86
:1004C0002C01224201480068704700BF0001214210
:1004D00001480068704700BF3001224201480068AF
:1004E000704700BF0801224201480068704700BF02
:1004F0002081224201480068704700BF18812142D4
:1005000001480068704700BF24812242014800680A
:10051000704700BF1001214201480068704700BFCA
:100520002881224201480068704700BF188122429A
:1005300001480068704700BF2C81224289B0CDF885
:1005400000E0834698B28C46BDF824100A9E04ACA5
:10055000ADF80410ADF808002046FFF719FFBDF80C
:100560000800BDF80410644CA34512D101256DB2FA
:10057000624C2560624D634C2560634D634C256081
:10058000634D644C2560644D644C2560079C039466
:1005900056E0634CA34512D101256DB2614C256034
:1005A000614D584C2560614D584C2560604D594C4B
:1005B0002560604D594C2560069C039440E05E4CDC
:1005C000A34512D101256DB25C4C25605C4D4D4CAC
:1005D00025605C4D4D4C25605B4D4E4C25605B4D60
:1005E0004E4C2560069C03942AE0594CA34512D139
:1005F00001256DB2574C2560574D424C2560574D33
:10060000424C2560564D434C2560564D434C256069
:10061000069C039414E0544CA34511D101256DB2FE
:10062000524C2560524D374C2560524D374C256059
:10063000514D384C2560514D384C2560069C039433
:10064000ADF80410ADF808003046FFF719FEBDF80C
:100650000800BDF804100BF1100500242C600BF10C
:1006600010052C680C432C600BF10C0500242C6049
:1006700018B140F4806080B2FFE70BF10C052C68E4
:1006800004432C600BF10C060125346865F34D34EE
:1006900034600BF10C060125346865F3C304346043
:1006A0000BF10C060125346865F3820434600BF10C
:1006B000140500242C60039D192465434FEA8C0423
:1006C000B5FBF4F76424B7FBF4F426013509642480
:1006D0006C433C1B240104F232056424B5FBF4F4A2
:1006E00004F00F0446EA04040BF10805A4B22C60E0
:1006F000DDF800E009B0704700380140380342429D
:10070000B90A000098000020FFFFFFFF9C000020B6
:10071000FFFFFFFFA0000020FFFFFFFFA40000205D
:1007200000440040C4034242D50A0000FFFFFFFF1F
:10073000FFFFFFFFFFFFFFFF00480040C8034242EA
:10074000650A0000FFFFFFFFFFFFFFFFFFFFFFFF46
:10075000004C0040CC0342429D0A0000FFFFFFFF17
:10076000FFFFFFFFFFFFFFFF00500040D0034242AA
:10077000810A0000FFFFFFFFFFFFFFFFFFFFFFFFFA
:1007800001480068704700BF148122420148006898
:10079000704700BF1C81214201480068704700BFBC
:1007A0001881214281B0CDF800E08CB21546774B1C
:1007B00000EA03031E461846FFF71CFDB4F1FF0FC5
:1007C0000CD1734B9D4203D14FF033333360D9E0EA
:1007D000422D03D14FF044333360D3E04FF6FF7323
:1007E0009C4214D16A4B9D4207D14FF033333360A2
:1007F000341D4FF033332360C4E0422D07D14FF056
:1008000044333360341D4FF044332360BAE0002199
:10081000002005F001030BB100211DE005F00203EB
:1008200033B105F4C0730BB1082100E0042113E0DB
:1008300005F0040333B105F020030BB1042100E0FF
:10084000002109E005F0080333B105F020030BB1E6
:100850000C2100E00821FFE74E4B05EA03030BB132
:10086000032009E005F400730BB1022004E005F455
:1008700080630BB10120FFE705F00C030BB10143CE
:10088000FFE704F0FF039BB2002B3BD0376800204A
:100890001FFA84F832462E4608282CD24FF0010366
:1008A00003FA00F408EA0403A34222D185004FF0C2
:1008B0000F03AB40DB4307EA030401FA05F344EA04
:1008C00003031D4606F48173B3F5817F05D102F25F
:1008D00014044FF001038340236006F08203822B4F
:1008E00005D102F210044FF00103834023602F462C
:1008F000FFE7401CD0E717601FFA88F00F4631462B
:10090000164602E00F462946A0B2B0F1FF0F39D9D2
:10091000331DD3F800800022082A30D202F20804E6
:100920004FF0010303FA04F400EA0403A34224D1C4
:1009300095004FF00F03AB40DB4308EA030807FACA
:1009400005F348EA030801F48173B3F5817F07D109
:1009500006F2140502F208044FF00103A3402B60D5
:1009600001F08203822B07D106F2100502F208047F
:100970004FF00103A3402B60FFE7521CCCE7331D6F
:10098000C3F80080DDF800E001B0704700FCFFFF15
:10099000140008000008080001480068704700BF04
:1009A0003001224201480068704700BF3081224276
:1009B00081B0CDF800E0034C2468A047DDF800E0EA
:1009C00001B07047A800002081B0CDF800E0019D83
:1009D0002C4610B408B493B28AB201460348FFF71C
:1009E000ADFD02B0DDF800E001B07047004400400A
:1009F00081B0CDF800E0034C2468A047DDF800E0AA
:100A000001B07047AC00002081B0CDF800E0019D3E
:100A10002C4610B408B493B28AB201460348FFF7DB
:100A20008DFD02B0DDF800E001B0704700380140F4
:100A300081B0CDF800E04FF0420289B2FFF7B2FE7C
:100A4000DDF800E001B0704781B0CDF800E0044A65
:100A500089B2FFF7A7FEDDF800E001B0704700BFE4
:100A60001400080081B0CDF800E081B20348FFF720
:100A7000FBFCDDF800E001B0704700BF004800401B
:100A800081B0CDF800E081B20348FFF7EDFCDDF85E
:100A900000E001B0704700BF0050004081B0CDF8C9
:100AA00000E081B20348FFF7DFFCDDF800E001B0B1
:100AB000704700BF004C004081B0CDF800E081B22B
:100AC0000348FFF7D1FCDDF800E001B0704700BF3C
:100AD0000038014081B0CDF800E081B20348FFF753
:100AE000C3FCDDF800E001B0704700BF00440040E7
:100AF00081B0CDF800E0019D2C4610B408B493B24B
:100B00008AB201460348FFF719FD02B0DDF800E0A4
:100B100001B070470048004082B0CDF800E00020EE
:100B20008DF80400FFF744FF012806D1FFF760FFAE
:100B3000012802D101208DF804009DF80400DDF8A1
:100B400000E002B07047FFFF82B0CDF800E0002067
:100B50008DF80400FFF72CFF28B9FFF749FF10B903
:100B600001208DF804009DF80400DDF800E002B0DB
:100B70007047FFFF82B0CDF800E000208DF8040040
:100B8000FFF716FF30B9FFF733FF012802D101202C
:100B90008DF804009DF80400DDF800E002B0704715
:100BA00081B0CDF800E0094902B440F2000340F200
:100BB000000240F20001FFF727FF01B0044A054997
:100BC0000A600020DDF800E001B070478C160000DC
:100BD000B90A00009000002081B0CDF800E009497A
:100BE00002B440F2000340F2000240F20001FFF7BD
:100BF000EBFE01B0044A05490A600020DDF800E080
:100C000001B0704720160000D50A000090000020B7
:100C100081B0CDF800E00178CCB2A0B2034C2468DA
:100C2000A0470020DDF800E001B0704790000020F0
:100C300081B0CDF800E0094902B440F2000340F26F
:100C4000000240F20001FFF7BFFE01B0044A05496F
:100C50000A600020DDF800E001B0704720160000B7
:100C6000D50A00009000002081B0CDF800E0A9E096
:100C7000012905D140F210016548FFF7D9FE04E0D3
:100C800040F210016248FFF7DFFEBBE0012905D109
:100C900040F204015F48FFF7CBFE04E040F204019C
:100CA0005C48FFF7D1FEADE0012905D142F2000119
:100CB0005948FFF7BDFE04E042F200015648FFF735
:100CC000C3FE9FE0012905D140F200415148FFF7E2
:100CD000AFFE04E040F200414E48FFF7B5FE91E060
:100CE000012905D140F600014A48FFF7A1FE04E0C2
:100CF00040F600014748FFF7A7FE83E0012905D130
:100D000041F200014348FFF793FE04E041F2000185
:100D10004048FFF799FE75E0012905D140F2010135
:100D20003B48FFF785FE04E040F201013848FFF739
:100D30008BFE67E0012905D140F200413648FFF7FC
:100D400077FE04E040F200413348FFF77DFE59E0B2
:100D5000012905D140F200212F48FFF769FE04E088
:100D600040F200212C48FFF76FFE4BE0012905D12E
:100D700040F200112848FFF75BFE04E040F200114A
:100D80002548FFF761FE3DE0012905D140F2400111
:100D90002248FFF74DFE04E040F240011F48FFF7F4
:100DA00053FE2FE0012905D140F280011B48FFF7D7
:100DB0003FFE04E040F280011848FFF745FE21E0C5
:100DC000012020E000283FF453AF01283FF45EAF3C
:100DD00002283FF469AF03283FF474AF04283FF4BE
:100DE0007FAF05283FF48AAF06283FF495AF072868
:100DF000A0D00828ACD00928B8D00A28C4D00B2825
:100E0000D0D0DDE70020DDF800E001B0704700BF82
:100E1000000801400010014000140140000C014096
:100E200081B0CDF800E0A9E0012905D140F2200110
:100E30006548FFF7FDFD04E040F220016248FFF73E
:100E400003FEBBE0012905D140F208015F48FFF72E
:100E5000EFFD04E040F208015C48FFF7F5FDADE06E
:100E6000012905D144F200015948FFF7E1FD04E0F2
:100E700044F200015648FFF7E7FD9FE0012905D144
:100E800040F200415148FFF7D3FD04E040F2004139
:100E90004E48FFF7D9FD91E0012905D140F6000148
:100EA0004A48FFF7C5FD04E040F600014748FFF758
:100EB000CBFD83E0012905D141F200014348FFF752
:100EC000B7FD04E041F200014048FFF7BDFD75E0C9
:100ED000012905D141F200013D48FFF7A9FD04E0D9
:100EE00041F200013A48FFF7AFFD67E0012905D163
:100EF00040F600013648FFF79BFD04E040F6000194
:100F00003348FFF7A1FD59E0012905D140F2400126
:100F10002F48FFF78DFD04E040F240012C48FFF719
:100F200093FD4BE0012905D140F220012848FFF74D
:100F30007FFD04E040F220012548FFF785FD3DE0FC
:100F4000012905D140F240012248FFF771FD04E07C
:100F500040F240011F48FFF777FD2FE0012905D13E
:100F600040F280011B48FFF763FD04E040F280017E
:100F70001848FFF769FD21E0012020E000283FF438
:100F800053AF01283FF45EAF02283FF469AF032856
:100F90003FF474AF04283FF47FAF05283FF48AAFD5
:100FA00006283FF495AF0728A0D00828ACD0092820
:100FB000B8D00A28C4D00B28D0D0DDE70020DDF857
:100FC00000E001B0704700BF000801400010014080
:100FD00000140140000C014081B0CDF800E0094947
:100FE00002B440F2000340F2000240F20001FFF7B9
:100FF0007FFD01B0044A05490A600020DDF800E0E9
:1010000001B07047B4150000650A00009000002090
:1010100000F2300303F218010A6804490A6003F27F
:101020001C010A6802490A60704700BFA80000203E
:10103000AC00002082B0CDF800E000208DF8040064
:10104000FFF7B6FC012805D1FFF7D2FC10B901204B
:101050008DF804009DF80400DDF800E002B0704750
:1010600082B0CDF800E000208DF80400FFF7E2FF29
:1010700010B102208DF80400FFF77CFD10B10320B1
:101080008DF80400FFF760FD10B104208DF8040016
:10109000FFF742FD10B105208DF804009DF8040013
:1010A000DDF800E002B0704781B0CDF800E011E05B
:1010B0000846FFF791FF16E00846FFF7B9FD12E07A
:1010C0000846FFF76DFD0EE00846FFF785FD0AE0D4
:1010D000012008E00028EBD00128EDD02028EFD037
:1010E0003028F1D0F4E7DDF800E001B07047FFFFF1
:1010F00081B0CDF800E05FFA81F95FFA82FA0FE083
:101100005FFA8AF15FFA89F0FFF7AEFD0DE05FFA52
:101110008AF15FFA89F0FFF783FE06E0012004E020
:101120000028EDD00128F2D0F8E7DDF800E001B0AA
:10113000704702040608FFFF44F67F77C0F21207EB
:101140007F1EFDD100BF00BF00BF00BF00BF7047C2
:1011500081B0CDF800E0FFF75BFFDDF800E001B003
:101160007047FFFF83B0CDF800E0024610460D2225
:101170008DF808200A228DF809201FE0FFF748FDAE
:1011800023E002782AB10190FFF742FD0198401C4C
:10119000F7E71AE002782AB10190FFF739FD0198CC
:1011A000401CF7E702AA1046FFF732FD0DF10902D5
:1011B0001046FFF72DFD08E0062007E00029DDD0EE
:1011C0000129DED00229E5D0F6E70020DDF800E0B5
:1011D00003B0704781B04FF000094FF0000CBDEB39
:1011E0000A0F04DCBDEB0B0F01DBD446EA464BF8DB
:1011F000049BBBEB0A0FFAD1BCEB0A0F05DDE246FC
:10120000D9F800B00BF1040BF1E701B07047FFFF14
:1012100081B01CF8019B0BF8019BBBEB0A0FF8D1C6
:1012200001B0704781B01548006840F001011348D3
:1012300001601349134801601048016812480140D9
:101240000E4801600D4801686FF4802001400B4892
:1012500001600C4801686FF4FE000140094801601C
:10126000064801686FF0A0500140044801604FF04B
:1012700000010648016001B0704700BF0010024045
:101280000000FFF004100240FFFFF6FE2C100240A9
:1012900081B0CDF800E0FFF7E3FE19490870194965
:1012A0000978814227D016480078022803D11648D1
:1012B0000221FFF757FF12480078032803D1134893
:1012C0000221FFF74FFF0E480078042803D1104891
:1012D0000221FFF747FF0A480078052803D10D488F
:1012E0000221FFF73FFF06480178064801700A48CF
:1012F0000221FFF737FFDDF800E001B0704700BFC3
:101300008D000020460000204700002055000020EE
:1013100063000020710000207F00002081B0CDF824
:1013200000E00848FFF714FFFFF706FF0648022118
:10133000FFF718FF05480221FFF714FFDDF800E072
:1013400001B07047F81600002A0000203800002085
:1013500081B0CDF800E0012206210020FFF7C8FE91
:10136000012207210020FFF7C3FE42F28051202016
:10137000FFF79AFE08480221FFF7F4FE0748022112
:10138000FFF7F0FE06480221FFF7ECFEFFF7D4FE60
:10139000DDF800E001B07047000000200E000020E2
:1013A0001C00002081B002490248016001B0704772
:1013B000401901009400002081B0FEE701B07047A1
:1013C00000F00EF800F010FAFFF7ECFF00F0CCF997
:1013D000FFF7BEFFFFF7A2FFFFF75AFFFCE7FEE7AC
:1013E00081B0CDF800E0464A464B474C47494BF6A2
:1013F0008030814206D94648006840F002014448E6
:10140000016011E045F6C050814206D940480068AD
:1014100040F001013E48016006E03D4801686FF080
:10142000070001403A480160FFF7FCFE39480360BD
:1014300039480460394802EA00013948016002F085
:10144000010040B119463648006800F0020000284B
:1014500000D1F8E700E0194602F4803040B10B46B5
:101460002F48006800F40030002800D1F8E700E0C1
:101470000B4602F0805068B12948006840F0805166
:10148000274801602648006800F00050002800D17D
:10149000F8E7FFE702F0806078B12148006840F08B
:1014A00080611F48016011461A461D48006800F01F
:1014B0000060002800D1F8E701E011461A4601F06B
:1014C000807070B11648006840F080711448016067
:1014D00011461348006800F0007000B9F9E70A46A9
:1014E000FFE70C48006800F00C01900000F00C00D1
:1014F000814200D0F5E7DDF800E001B0704700BFA1
:101500008100010502841D0044060100401901000C
:1015100000200240041002402C100240FFFF0F0088
:10152000001002402D2D2D2D2D2D2D2D2D2D2D2D4D
:101530002D002054696C742020436C69636B20007B
:101540002D2D2D2D2D2D2D2D2D2D2D2D2D002049E9
:101550006E697469616C697A656420002D2D2D2D8A
:101560002D2D2D2D2D2D2D2D2D0000202020204C1A
:10157000454654202020202000202020205249478A
:1015800048542020202000202020202055502020BA
:10159000202020200020202020444F574E202020B3
:1015A0002020002D2D2D2D2D2D2D2D2D2D2D2D2DB2
:1015B00000FFFFFF3800000039000000FFFFFFFFC1
:1015C000000000000000000000000000000000001B
:1015D000000000000000000000000000000000000B
:1015E00000000000000000001808000018000000C3
:1015F00000000000000000000000000000000000EB
:1016000000000000000000000000000000000000DA
:10161000000000000000000000000000300014087E
:101620003500000036000000FFFFFFFF0000000053
:1016300000000000000000000000000000000000AA
:10164000000000000000000000000000000000009A
:101650000000000018080000180000000000000052
:10166000000000000000000000000000000000007A
:10167000000000000000000000000000000000006A
:101680000000000000000000080000080900000041
:101690000A000000FFFFFFFF000000000000000044
:1016A000000000000000000000000000000000003A
:1016B000000000000000000000000000000000002A
:1016C00018080000180000000000000000000000E2
:1016D000000000000000000000000000000000000A
:1016E00000000000000000000000000000000000FA
:1016F0000000000004000000FFFFFFFFFFFFFFFFEE
:10170000FFFFFFFFFFFFFFFFFFFFFFFFFFFFFFFFE9
:10171000FFFFFFFFFFFFFFFFFFFFFFFFFFFFFFFFD9
:10172000FFFFFFFFFFFFFFFF0D050000DD040000CE
:10173000AD040000A1040000B9040000D1040000C1
:10174000C50400001905000001050000E9040000BF
:10175000F504000051040000000000000102030431
:10176000010203040607080900B5DFF814B0DFF82A
:1017700014A0DFF814C0FFF74BFD00BD704700BF99
:10178000000000208D00002024150000FFFFFFFF57
:10179000FFFFFFFFFFFFFFFFFFFFFFFFFFFFFFFF59
:1017A000FFFFFFFFFFFFFFFFFFFFFFFFFFFFFFFF49
:1017B000FFFFFFFFFFFFFFFFFFFFFFFFFFFFFFFF39
:1017C000FFFFFFFFFFFFFFFFFFFFFFFFFFFFFFFF29
:1017D000FFFFFFFFFFFFFFFFFFFFFFFFFFFFFFFF19
:1017E000FFFFFFFFFFFFFFFF00B5DFF810B0DFF8DE
:1017F00010A0FFF7EFFC00BD704700BF0000002005
:10180000B0000020FFFFFFFFFFFFFFFFFFFFFFFF14
:00000001FF
